:020000040800F2
:1000000040DF00209D01000851410008A53500088F
:100010004D4100084D090008354E00080000000061
:10002000000000000000000000000000614A00081D
:10003000B50900080000000061410008954A000869
:10004000B7010008B7010008B7010008B7010008B0
:10005000B7010008B7010008B7010008B7010008A0
:10006000B7010008B7010008B7010008B701000890
:10007000B7010008B7010008B7010008B701000880
:10008000B7010008B7010008B7010008B701000870
:10009000B7010008B7010008B7010008B701000860
:1000A000B7010008714B0008B7010008B70100084C
:1000B000B7010008B7010008C94B0008B7010008E4
:1000C000B7010008B7010008B7010008B701000830
:1000D000B7010008B7010008B7010008B701000820
:1000E000B7010008B7010008B7010008B701000810
:1000F000B7010008B7010008B7010008B701000800
:10010000B7010008B7010008B7010008B7010008EF
:10011000B7010008B7010008E54B0008B701000867
:10012000510900087D090008B7010008B70100085F
:10013000B7010008B7010008B7010008B7010008BF
:10014000B7010008B7010008B7010008B7010008AF
:10015000B7010008B7010008B7010008B70100089F
:10016000B7010008B7010008B7010008B70100088F
:10017000B7010008B7010008B7010008000000003F
:10018000B7010008B7010008DFF80CD000F04AFB07
:100190000048004739E0000840DF0020064880475B
:1001A00006480047FEE7FEE7FEE7FEE7FEE7FEE75C
:1001B000FEE7FEE7FEE7FEE75D4B00088901000869
:1001C0002DE9F05F0546002092469B46884606468C
:1001D000814640241BE0284641464746224600F01F
:1001E0006AFA53465A46C01A914110D3114618462E
:1001F000224600F051FA2D1A67EB01084F462246BD
:100200000120002100F048FA17EB00094E41201EA2
:10021000A4F10104DFDC484631462A464346BDE8E6
:10022000F09F40EA01039B0703D009E008C9121FB1
:1002300008C0042AFAD203E011F8013B00F8013BA0
:10024000521EF9D27047D2B201E000F8012B491ECC
:10025000FBD270470022F6E710B513460A46044663
:100260001946FFF7F0FF204610BD2DE9FE4F8046EE
:1002700081EA0300C00F0C46009021F0004123F0FA
:100280000045B8EB0200A94105D240462146904600
:100290001C460B46024623F00040104347D0270D72
:1002A000C7F30A00C3F30A510290401A0190402894
:1002B0006BDAC3F3130040F4801B0098924620B120
:1002C0000023D2EB030A63EB0B0B01985946C0F1F4
:1002D0004002504600F0E0F906460D4650465946A9
:1002E000019A00F0F8F910EB08006141002487EA58
:1002F000115284EAE7731A4340D0009A62B3019A1C
:10030000012A4FEA075215DC001B61EB02014FF096
:10031000004202EA0752CDE90042001C41F580117B
:1003200032462B4600F02FFA03B0BDE8F08F40466E
:100330002146F9E7001B61EB0201001C41F5801327
:1003400000185B412018A2F5001747EB030140EAB3
:10035000D570B6196D4111E06D084FEA360645EAD1
:10036000C0754FEA0752001B61EB0201001C41F50A
:10037000801149084FEA30000019514132462B469E
:1003800003B0BDE8F04F00F0EFB900980122400043
:100390000023D0EB020263EBE073009821464FEAA2
:1003A000E074B8EB000061EB0401E9E783F000437F
:1003B0005BE781F0004158E72DE9FE4F81EA030435
:1003C00004F0004421F0004100944FF0000B23F0B2
:1003D000004350EA01045ED052EA03045BD0C3F349
:1003E0000A54C1F30A552C44A4F2F3340194A0FB3F
:1003F0000254C1F3130141F48011C3F3130343F416
:10040000801301FB024400FB034E840A970A44EA6E
:10041000815447EA8357A4FB076802958D0A05FBC0
:1004200007854FEA932C04FB0C542705029D4FEAE5
:10043000065847EA1637B5EB08056EEB070C870E32
:10044000920E47EA811742EA8312A7FB0201B6EB3C
:100450000B0164EB00042B0D43EA0C335E1844EBF4
:100460001C50DA465146E7FB0201C5F313044FEA7C
:100470000B3343EA14534FEA0432019C43EA060368
:10048000A4F10C040294009CCDE900B400F07BF9C7
:1004900003B0BDE8F08F00200146F9E72DE9F04DEB
:1004A00081EA030404F0004B21F0004514464FF0AC
:1004B000000A23F0004150EA050220D054EA01026C
:1004C0001DD0C5F30A570246C5F31303C1F3130049
:1004D000C1F30A5640F4801543F48013A7EB0608D5
:1004E000101BD64608F2FD3873EB050002D308F165
:1004F000010801E092185B41B8F1000F03DA002017
:100500000146BDE8F08D00204FF480110646844678
:100510000EE0171B73EB050705D3121B63EB0503F6
:1005200006434CEA010C49084FEA300092185B413F
:1005300050EA0107EDD152EA030012D082EA04002A
:1005400083EA0501084305D0101BAB4106D2012206
:10055000002306E000224FF0004302E06FF00102AA
:1005600053101AEB06004CEB085110EB0A0041EB5C
:100570000B01BDE8F04D00F0F7B830B5041E71F185
:10058000000404DB4FF00044404264EB0101141E00
:1005900073F1000405DB1C464FF00043524263EB4D
:1005A0000403101A8B4101D3012030BD002030BD5F
:1005B0000EB540F2334102910021CDE900110A4607
:1005C0000B4600F0E0F803B000BD70B5C1F30A526D
:1005D00001F000450024C1F3130140F2FF3341F460
:1005E00080119A4201DA002070BD40F233439A42F2
:1005F000A2F2334203DC524200F05DF800E090408A
:100600002C43F1D0404270BDC1F30A5210B5C1F382
:10061000130140F2FF3341F480119A4201DA0020C5
:1006200010BD40F233439A42A2F2334203DC5242FD
:1006300000F041F810BD904010BD00F0004230F0D5
:1006400000400AD0C10D01F56071C0F3160042EA06
:100650000151C2084007114370470020014670470E
:1006600001F0004330B421F0004150EA010206D00D
:100670000A0DA2F56072C1F31301002A02DC30BC3E
:1006800000207047440F44EAC104C100E01830BCA8
:1006900000EBC25000F031B8202A04DB203A00FA07
:1006A00002F1002070479140C2F1200320FA03F3C9
:1006B000194390407047202A04DB203A21FA02F0C7
:1006C0000021704721FA02F3D040C2F1200291408C
:1006D000084319467047202A06DBCB17203A41FA17
:1006E00002F043EAE07306E041FA02F3D040C2F1BF
:1006F000200291400843194670470029A8BF70475F
:10070000401C490008BF20F00100704710B4B0FA47
:1007100080FC00FA0CF050EA010404BF10BC7047E2
:1007200049B1CCF1200421FA04F411FA0CF118BFFC
:10073000012121430843A3EB0C01CB1D4FEA0061CB
:100740004FEA102042BF002010BC704700EBC3509E
:1007500010440029A4BF10BC7047401C490008BFCA
:1007600020F0010010BC704710B5141E73F1000496
:1007700008DA401C41F1000192185B411A4301D193
:1007800020F0010010BD2DE9F04D92469B4611B1BD
:10079000B1FA81F202E0B0FA80F220329046FFF71F
:1007A0007BFF04460F4640EA0A0041EA0B0153462C
:1007B0005A46084313D0114653EA010019D0C8F134
:1007C00040025046FFF777FF05460E465046594611
:1007D0004246FFF761FF084305D0012004E02046B0
:1007E0003946BDE8F08D0020054346EAE0762C430B
:1007F00037430A986305E40AA0EB08000022FD0ACB
:1008000044EA47540A3002D500200146E9E70105D1
:1008100010196941DDE9084500196941BDE8F04D4D
:10082000A2E700001CB50948009009480190054660
:10083000009C06E0E06840F0010394E80700984758
:100840001034AC42F6D3FFF7A3FC00008462010829
:10085000A46201080000000010B582B0044649F609
:10086000FF20CEF232200A180130824238BF4FF406
:100870007A710846FFF79CFE9FED0F0B53EC102B8F
:10088000FFF79AFDFFF7C0FE00BA032C019009D8CC
:1008900040F20C00C2F200000219002001210023E6
:1008A00004F0CAFA01AA04200421012304F0C4FAC6
:1008B00002B010BD00BF00BF95D626E80B2E314018
:1008C0000146806B036C026C13F0500F08D0D20607
:1008D00048BF00F0E7BB806BC26C0846104700BF02
:1008E00042F40071016401688A6812F0405F01D02F
:1008F00000F0D4BB027E002AFAD1CA6A12F4700F4B
:1009000002D08A685205F3D44A6822F020024A6075
:10091000016C21F480710164016CC90448BF00F0CE
:10092000BDBB016C41F00101016400F0B7BB0000E8
:10093000806B40210164416C41F00401416400F08E
:10094000B1BB0000806B00F0ABBB0000FEE7000015
:1009500080B544F2446040F25421C2F20000C2F279
:1009600000014FF40062FFF75CFC44F24430C2F235
:100970000000BDE8804001F039B8000080B544F6C1
:10098000446040F65621C2F20000C2F200014FF46A
:100990000062FFF746FC41F25621C2F2000101223B
:1009A00044F2A430C2F200000A70BDE8804001F0B9
:1009B0001DB800007047000070B584B040F2C00060
:1009C000C2F20000008805F025FF4FF6FF744F20AB
:1009D00040F2A5114FF4457240F2A513009406F0C1
:1009E0001FF84F2040F2A5114F225223009406F029
:1009F00017F84FF4457040F2A51140F20E324FF453
:100A0000D173009406F00CF84FF4457040F2A51134
:100A100040F20E324FF4D473009406F001F84F20E8
:100A200052214C225823009405F0FAFF4F20522106
:100A300052225823009405F0F3FFDC2040F2A51168
:100A400005224FF6FF7306F03FF84FF4B47040F202
:100A5000A51105224FF6FF7306F036F84FF4FA7031
:100A600040F2A51105224FF6FF7306F02DF84FF462
:100A7000207040F2A51105224FF6FF7306F024F80E
:100A80004A204FF4B97105224FF6FF7305F078FF45
:100A90004A204FF4A07105224FF6FF7305F070FF56
:100AA0004A204FF4877105224FF6FF7305F068FF67
:100AB0004A20DC2105224FF6FF7305F061FF4A2032
:100AC000AA2105224FF6FF7305F05AFF4A2078212C
:100AD00005224FF6FF7305F053FF40F2AC06C2F259
:100AE000000634881025412040F2AF110022032374
:100AF000CDE900540DF0D8F93488CD2040F2AF1183
:100B000064220323CDE900540DF0CEF9348840F27D
:100B1000591040F2AF11C8220323CDE900540DF063
:100B2000C3F9348840F2E51040F2AF114FF49672E9
:100B30000323CDE900540DF0B7F9348840F2712059
:100B400040F2AF114FF4C8720323CDE900540DF009
:100B5000ABF9348840F2FD2040F2AF114FF4FA7245
:100B60000323CDE900540DF09FF9308842A1CDE96F
:100B700001104FF43C704FF4E471142214230095DB
:100B80000DF01CFA34889FED2E0B282040F29D11A9
:100B900001220123CDE900540CF0F6FF34889FEDCB
:100BA0002A0B282040F26B1101220123CDE90054C9
:100BB0000CF0EAFF34889FED260B282040F2391113
:100BC00001220123CDE900540CF0DEFF34889FEDB3
:100BD000220B282040F2071101220123CDE9005405
:100BE0000CF0D2FF34889FED1E0B2820D521012266
:100BF0000123CDE900540CF0C7FF34889FED1A0B98
:100C00002820A32101220123CDE900540CF0BCFFD0
:100C100034889FED170B2820712101220123CDE993
:100C200000540CF0B1FF368814A0CDE90050132019
:100C300058211422142302960DF0C0F904B070BD9F
:100C40000000000000000000000000000000E03F85
:100C5000000000000000F03F000000000000F83F2E
:100C60000000000000000040000000000000044000
:100C700000000000000008406B487A0056000000A9
:100C80002DE9F04F81B02DED028B82B090ED000A7E
:100C90009FED398A064620EE080A10EE100AFFF78B
:100CA000CCFC9FED330B5BEC102B5B460192FFF706
:100CB000F5FBFFF78AFCC0F5D2701FFA80F94FF4FC
:100CC000D270B9F5D27F28BF8146351F4FF42F7AF5
:100CD00050245A20B9F15A0F98BF814695ED020A67
:100CE000502020EE080A00EB5A2810EE100AFFF7F9
:100CF000A4FC019A5B46FFF7D1FBFFF766FCC0F549
:100D0000D27086B24FF4D270B6F5D27F28BF0646B5
:100D100040F2C000C2F20000D0F800C05A201FFA12
:100D200088F7A4B25A2E98BF064620465A213A4662
:100D30004FF4D273CDF800C00BF056FE1FFA89F1C4
:100D400020463A4633464FF47847009705F068FE50
:100D50000AF52F7A0435BAF5AF2F4446B146BDD116
:100D600002B0BDEC028B01B0BDE8F08F00BF00BF48
:100D70006666666666660A400000A54372B600BFF6
:100D8000FEE70000B3F5804F03461DD1B0B553F820
:100D900022C00020CCF6F0700CEA000E91E8310081
:100DA000D1F818C040EA0E0040EA0410C96840EAD1
:100DB000052040EA0C0040EA0141BDE8B0400020B7
:100DC00043F82210704700BF6FF07041002043F8D5
:100DD000221070472DE9F04F83B00B68024650F89F
:100DE000230001F1240B20F0010042F82300D1E997
:100DF00002C0D1E900E301908869D1E9049A029028
:100E0000C86BD1E9077600909BE83008D1F83080B4
:100E100052F82E008021CFF6F0710840BCF1080F87
:100E200008BF43F040030199194341EA090141EA2F
:100E30000A01394331432143294341EA0B01029B13
:100E400041EA08011943009B1943084340EA0C0199
:100E5000002042F82E1003B0BDE8F08F70B5D1E944
:100E600000C3D1E902E44CEA031343EA0E23D1E9BB
:100E7000045643EA04430024CFF6F074896904EB76
:100E800005552B43FE36194341EA066100EB820209
:100E90000020516070BD00002DE9F0412DED028B66
:100EA00084B0B0EE401AF0EE601A9FED2B0BA0B1AB
:100EB000174692B1054600200390012001900720BB
:100EC000B0EE418A0091029069462846F0EE618AB0
:100ED00000F046F830B19FED200B04B0BDEC028B62
:100EE000BDE8F081A8684FF6FF7800263C46002850
:100EF00008BF40F6FF7804E0284600F053FC013CB0
:100F00000ED0284600F0D0FA28460A2100F04CFA0C
:100F10000028F1D1284600F0C7F80644ECE700BFEE
:100F20003046FFF745FB02460B4651EC180BFFF726
:100F300043FA054608FB07F00E46FFF739FB024669
:100F40000B4628463146FFF7A9FA41EC100B04B0D6
:100F5000BDEC028BBDE8F081000000000000000045
:100F600070B581B00022009290F83C20012A03D194
:100F7000022001B070BD00BFD1F800E001221FFACD
:100F80008EFC4FEA4C0380F83C200EEB4E0213FA25
:100F90008EF31024BEF1090F88BFA3F11E0288BF93
:100FA0000C24036807251E59954026EA05051D51A6
:100FB0008D681E5905FA02F232431A514968062912
:100FC00006D801EB81014A1F194651F8345F0EE043
:100FD0000C2901EB810105D8A1F12302194651F832
:100FE000305F04E0A1F14102194651F82C5F1F2443
:100FF000944025EA04040C600CFA02F20C6842F2F8
:10100000043CC4F2010C2243ACF54174A3420A60D3
:101010003ED1BEF1120F07D1DCF8001041F480017F
:10102000CCF8001034E000BF2EF0010110292FD1C0
:10103000DCF80010BEF1100F41F40001CCF80010F4
:1010400026D140F29801C2F2000109684DF6836290
:10105000C4F21B32A1FB0212910C01EB8101490089
:1010600000910099A1B1009901390091009979B1DD
:10107000009901390091009951B10099013900910D
:10108000009929B100990139009100990029EAD10C
:10109000002180F83C10002001B070BD70470000B6
:1010A00070470000704700000068C06C7047000087
:1010B000002804BF0120704710B5016C00293DD005
:1010C000016CC90645D4016C41F202129143023110
:1010D00042F204320164C4F20102116821F4403189
:1010E0001160136890E812102343D0F810E01360E9
:1010F0004A68012422F480724A604A68C0F600748B
:1011000042EA0E224A604A6822F040724A604A6807
:1011100042EA0C024A608A6822F400628A60C2686D
:101120008B681A438A60826A8B68A24223F07063DC
:101130008B608B6810D123F0405216E0044600F01B
:1011400065F820460021616484F83C10016CC906F2
:10115000B9D5012153E000BF1A438A608A6822F0A2
:1011600040528A60C26A8B681A438A608A6822F099
:1011700002028A608A68037E90F8204042EA4302B5
:101180008A604A6884B142F400624A604A684EF25A
:10119000000322F460424A60426ACFF6FF734C6853
:1011A00003EB4232224301E022F400624A60CA6A41
:1011B00040F2000C22F47002CA62C3694269CFF6A1
:1011C000F07CCC6A0CEB03532343CB628B6823F493
:1011D00000738B6090F830308C6844EA43238B6056
:1011E0008B6823F480638B608B6843EA82228A6079
:1011F00000214164026C012363F3010202640022B6
:1012000080F83C20BDE810400846704770B586B0B5
:101210000446006842F20021C4F20101002688421F
:10122000CDE90466CDE90266019671D042F2001163
:10123000C4F20101884243D042F20001C4F201012C
:10124000884240F0AE8043F630000096C4F20200BF
:10125000416941F480714161416901F480710091FB
:1012600000990096016841F001010160006801A940
:1012700000F0010000900098022001900320CDE9C9
:1012800002060020C4F2020000F0AAFD44F2443538
:1012900046F21040C2F20005C4F202004FF4806131
:1012A000C5E9000605F110004FF400624FF4005349
:1012B0004FF4807CC5E9026680E80E1066E000BF4E
:1012C000002043F630010090C4F202014A6942F462
:1012D00000724A614A6902F400720092009A00901A
:1012E0000A6842F004020A60096801F004010091F2
:1012F0000099072101910321CDE902100020C4F2D9
:10130000020000F5006001A900F06AFD06B070BDA2
:1013100043F630000096C4F20200416941F4806156
:101320004161416901F48061009100990096016872
:1013300041F001010160006801A900F00100009086
:101340000098042001900320CDE902060020C4F299
:10135000020000F045FD46F21040C4F2020044F2E3
:10136000A4351830C2F200054FF080614FF480625E
:101370004FF4006385E8430005F114004FF4005C6E
:101380004FF4807EC5E9036280E8085028462E624B
:101390006E6200F00DFC002818BFFFF7EFFCA5639C
:1013A000AC6306B070BD000070B5044600680D4621
:1013B0008268520544BF80685FEAC05038D400F0AC
:1013C000E5FD21680A68920749D40646681C3CD0AE
:1013D000DDB90868800721D5086880073FD4086810
:1013E00080071BD50868800739D40868800715D5A1
:1013F0000868800733D4086880070FD5086880071D
:10140000E7D52CE00868800729D400F0BFFD801BD9
:101410002168A842F6D908688007F3D4206C40F010
:1014200004002064002084F83C00032070BD00BF4D
:10143000206C40F020002064002084F83C00012053
:1014400070BD00BF0868800709D40868800706D40B
:10145000086880075CBF08685FEA8070F2D56FF0AB
:1014600012000860206C40F400702064886810F05E
:10147000405F01D0002070BD207E0028FAD1C86AEC
:1014800010F4700F02D088684005F3D4206C20F46B
:1014900080702064206CC004ECD4206C40F001000B
:1014A0002064002070BD000010B581B000210091C3
:1014B00090F83C10012903D1022001B010BD00BFFB
:1014C0000468012180F83C10214651F8083FDB07F1
:1014D00029D10B684DF6836243F001030B6040F2A3
:1014E0009803C2F200031B68C4F21B32A3FB022361
:1014F0009A0C02EB42020092009AA2B1009A013AC1
:101500000092009A7AB1009A013A0092009A52B180
:10151000009A013A0092009A2AB1009A013A009288
:10152000009A002AEAD10A68036CD2070CD143F072
:101530001001016400F1440101200A6810430860B1
:10154000002001B010BD00BF40F2017223EA020288
:1015500002F5807202646268520504D5026C0123B0
:1015600063F30D320264026C4FF0000E0023D204CC
:1015700044BF426C22F0060342F2043C436480F80C
:101580003CE06FF02200C4F2010C2060DCF80000A7
:10159000C0060DD0ACF5417084422BD14FF60450FB
:1015A000CFF6FF705CF8000010F0405F22D125E01C
:1015B00042F20000C4F20100844217D042F200203F
:1015C000C4F2010084420DD042F20010C4F20100C6
:1015D00084420FD1DCF80000C00607D0ACF5827061
:1015E000844207D1DCF80000C00603D4086810F07C
:1015F000405F03D0002001B010BD00BF4FF080401D
:101600009BE70000B0B582B00023019390F83C3016
:10161000012B03D1022002B0B0BD00BF8E460123D2
:10162000016880F83C308B689446DB0729D18B68D1
:101630004DF6836443F001038B6040F29803C2F2DD
:1016400000031B68C4F21B34A3FB0434A30C03EB9C
:1016500043030193019BA3B1019B013B0193019BB8
:101660007BB1019B013B0193019B53B1019B013B6A
:101670000193019B2BB1019B013B0193019B002B2B
:10168000EAD18B68DB0503D58B6823F480738B600C
:101690008C68036CE4070BD143F01001016400F186
:1016A0004401002001220B681A430A6002B0B0BD59
:1016B00040F20174A34303F5807303644B685B0538
:1016C00004D5036C012464F30D330364046C00231C
:1016D000E4044FF0000444BF446C24F00604446466
:1016E00080F83C30836B40F6C10440F64512C0F6EA
:1016F0000004C0F60002C3E90F4240F63112C0F602
:101700000002DA646FF022020A604A6842F204348E
:1017100042F080624A608A68054642F480728A60BC
:101720004C31184672466346C4F2010400F0F2FAE6
:1017300022682968D20605D0A4F54172914225D0CD
:1017400002B0B0BD42F20002C4F20102914215D0D3
:1017500042F20022C4F2010291420CD042F2001285
:10176000C4F201029142EBD12268D20606D0A4F560
:1017700082729142E4D12268D206E1D451F8082F56
:1017800012F0405FDCD14FF080428CE74FF60452FC
:10179000CFF6FF72A25812F0405FD1D108314FF05E
:1017A000804280E790F83C10012904BF0220704776
:1017B00001688A6822F001028A608968C90705D138
:1017C000016C41F20112914301310164002180F862
:1017D0003C100020704700007047000000284FF0C8
:1017E000010318BF002901D1184670474379012B26
:1017F0004FF00203F8D010B50371036802F0100E29
:10180000D3F800C0D1E9001440F6FE7202FA0EF2DD
:1018100021432CEA020201FA0EF111431960C021A2
:101820001A6801FA0EF122EA010119600121002370
:1018300001714371BDE810401846704770470000C1
:1018400070B501680E684D6BB20413D515F40052E3
:1018500010D0042202710269044642F001020261C2
:101860004FF400524A630A6822F480520A60FFF77C
:10187000E5FF2046B10058BF70BD15F0005111D0F2
:101880000421017101694FF0005241F00201016130
:1018900001684A630A6822F080520A60BDE870401D
:1018A000FFF79ABF70BD0000002804BF01207047F9
:1018B000017941B910B500214171044600F00CF8DE
:1018C0002046BDE810400221017100210122016182
:1018D000027108467047000080B586B047F20041AB
:1018E0000068C4F20001002288420592CDE903227B
:1018F0000292019202D006B080BD00BF43F63000D4
:101900000092C4F20200036943F0005303610369CB
:1019100003F000530093009B0092036843F001031F
:101920000360006800F00100009000981020019012
:101930000320CDE9020201F5C63001A900F050FAFA
:1019400036200F21002200F0DFFB362000F0CAFB1A
:1019500006B080BD81B04FF0000CCDF800C088B15A
:101960000068002900904FF01400DDF800C008BFA7
:10197000082010446044009000980360002001B0EB
:10198000704700BF012001B070470000002804BF6D
:10199000012070474279012A4FF0020224D010B58D
:1019A0000271026801F0100C4FF0010E14680EFA7B
:1019B0000CF323431360136841B103F470113C230B
:1019C00003FA0CF3994209D1022104E003F03C012F
:1019D0003C2903D1012153681943516001210022A0
:1019E00001714271BDE8104010467047F0B581B0FA
:1019F0000021009140F29801C2F200010B68D0E989
:101A0000166148F2B51537680822C1F64E358A408E
:101A10003A42A3FB05350CD003681C68640708D55F
:101A20001C6824F004041C60B260426D42F00102A4
:101A3000426501228A403A4208D003685B691B066E
:101A400004D5B260426D42F00202426504228A402F
:101A50003A4208D003681B689B0704D5B260426D08
:101A600042F00402426510228A403A4219D00168CD
:101A70000B681B0715D5B2600B680A685B0309D4B5
:101A8000D20509D40A6822F008020A60016C29B95B
:101A900007E000BF110341D4016C11B1044688472F
:101AA0002046C26D202101FA02F33B4243D0016877
:101AB0000F68FF063FD5B36090F835700B68052FAF
:101AC0001CD123F016030B604B6923F080034B619C
:101AD000036C0BB9836C1BB10B6823F008030B601C
:101AE0003F219140B160012180F83510016D002245
:101AF000002980F8342054D158E000BF0A685B0305
:101B000010D4D20512D40A6822F010020A60012112
:101B100080F83510002180F8341007E0816C00292E
:101B2000BCD1BEE7110301D4416C00E0C16B11B11F
:101B3000044688472046416DC1B3416DC9072ED088
:101B4000052180F835100168AA0A0B6823F001030B
:101B50000B60009B0133934200931AD80B68DB079C
:101B600017D0009B01339342009312D80B68DB0718
:101B70000FD0009B0133934200930AD80B68DB0718
:101B800007D0009B01339342009302D80B68DB0718
:101B9000DFD1012180F83510002180F83410C16CAC
:101BA00021B101B0BDE8F040084700BF01B0F0BD71
:101BB0002DE9F041044600F0E9F9ECB105460220B8
:101BC00084F835000020216884F83400086820F08B
:101BD0000100086021680868C00711D000F0D6F93C
:101BE000401B0528F6D9032520230320636584F8CC
:101BF0003550BDE8F08100BF0120BDE8F08100BF95
:101C0000086848F23F02CFF21002D4E9013500EA39
:101C1000020C04F10C0898E8C10143EA0C032B43C1
:101C20001843D4E9072E304338431043626A40EA30
:101C30000E00042A40EA08031CD1206BD4E90A2EC6
:101C400040EA0E00184308604869BEF1000F20F01A
:101C5000030040EA020040F0040C11D0B8F5005F28
:101C600036D0B8F1000F45D1022A46D0012A3BD028
:101C700032B942E00B60486920F0070040EA020CEC
:101C800001F0F8004AF6AB221038CAF6AA22A0FBEF
:101C900002231A0944F21823C1F814C0C0F6010344
:101CA0009A5C40F2FF335F284FF03F0021EA0301C6
:101CB00000FA02F088BF0431C4E9161288600023DC
:101CC00001250020636584F83550BDE8F08100BF30
:101CD000032AD5D8012540230120DFE802F0030EB6
:101CE000030500BF82E700BFAEF1C070B0FA80F01C
:101CF000400904E0032A04D3C2D1CEF300600028D7
:101D0000BED0012540230120636584F83550BDE82D
:101D1000F081000090F834C0BCF1010F04BF022034
:101D2000704770B54FF0010C80F834C0D0F858E01F
:101D300090F835C0BCF1010F38D14FF0020C80F89B
:101D400035C04FF0000CC0F854C0D0F800C0846813
:101D5000056CC06DDCF80060402C26F48026CCF8C1
:101D60000060CCF804300B4604BF13460A463F21FE
:101D700001FA00F0CCF80830CCF80C20CEF80800BE
:101D8000DCF8000040F01600CCF800002DB1DCF8C3
:101D9000000040F00800CCF80000DCF8000040F043
:101DA0000100CCF80000002070BD00BF002180F8C9
:101DB0003410022070BD0000B0B5044600F0E6F813
:101DC000054640F20400C2F200000078611C18BF12
:101DD000044400BF00F0DAF8401BA042FAD3B0BDC3
:101DE0002DE9F04F83B000F1200200F13E4741F6AB
:101DF0000045009207F1FF77C4F2020508224FEA7E
:101E0000B726A84208BF072200254FF000084FF070
:101E10000009072E38BF4FEAB72201920AE000BF3F
:101E200009F1010908F10208B9F1100F05F10405E3
:101E300000F0A2800F68012202FA09FE17EA0E0ADA
:101E4000EED0D1F804C003220CF003077E1E02FA84
:101E500008F4012E6FEA040B12D88468CE6804EAF5
:101E60000B0406FA08F634438460446824EA0E063C
:101E7000CCF3001404FA09F42643466004E000BFE2
:101E8000032F01D103271EE0C6688C6806EA0B0603
:101E900004FA08F42643022FC66014D16FF003023F
:101EA000009E02EA590756F807C005F01C040F22ED
:101EB0000B69A2402CEA0202A3401A43F251D1F866
:101EC00004C00CF00307026807FA08F302EA0B02E9
:101ED0001A431CF4403F0260A2D0002243F64403A0
:101EE0000292C4F202031A6843F6004442F48042AC
:101EF0001A601A68C4F2010402F480420292029A43
:101F000029F003024FF6084C2244CFF6FF7C52F82A
:101F10000C3005F00C070F26BE40B343019E06FAB5
:101F200007F73B4342F80C30A2684B6842EA0A07C5
:101F300043F60C4CDE0258BF22EA0A07A760C4F23F
:101F4000010CDCF800209E0242EA0A0758BF22EA90
:101F50000A07CCF8007062689E0342EA0A0758BF7D
:101F600022EA0A0767602268DB0342EA0A0758BFD1
:101F700022EA0A07276053E703B0BDE8F08F0000AC
:101F8000002A08BF090481617047000049F2A0706F
:101F9000C2F200000068704740F2040049F2A071EC
:101FA000C2F20000C2F2000100780A681044086022
:101FB0007047000080B543F60040C4F2020001689B
:101FC00041F400710160016841F4806101600168C1
:101FD00041F480710160032000F0C2F80F2000F08E
:101FE00005F800F05DF8002080BD000070B586B0F7
:101FF000002543F640010195C4F202010A68044637
:1020000042F010020A60096801A801F01001019174
:102010000199694600F066F9049E002E18BF01265A
:1020200000F080F94DF68361B040C4F21B31A0FB93
:1020300001014FF0FF3000EB914144F26C5041F24E
:102040000002C2F20000C4F2000240F2E733C0E92D
:102050000021C0E902530561856100F06BFC08B105
:1020600006B070BD44F26C50C2F2000000F0BCFD3E
:102070000028F5D1362000F035F80F2C0CD836208A
:102080002146002200F040F840F208010020C2F290
:1020900000010C6006B070BD012006B070BD0000EC
:1020A00082B0002043F640010190C4F202014A6868
:1020B00042F480424A604A6802F480420192019AE6
:1020C00000900868002240F08050086008680F21E6
:1020D00000F08050009000986FF0010002B000F016
:1020E00013B80000002848BF704700F01F0101220C
:1020F00002FA01F11C2202EAD0004EF20012CEF2E6
:10210000000281507047000010B54EF60C5CCEF214
:10211000000CDCF80030C3F3022E8EF00704042C10
:1021200028BF0424BEF103034FF0FF3E0EFA04F46F
:1021300038BF0023A14399400EFA03F39A43114399
:1021400000F00F0200F160430901043A03F5644313
:102150006244002848BF02F10C03197010BD000052
:102160004EF60C51CEF200010A684FF6FF031A40FA
:1021700060F30A2242F0806040F0FD700860704712
:10218000002804BF012070472DE9F04143F60808FC
:10219000C4F202080446D8F8F8030D4600F0070020
:1021A000814207D988F8F853D8F8F80300F00700FF
:1021B000A84277D12068810717D5410705D5D8F8FF
:1021C000001041F4E051C8F80010010705D5D8F817
:1021D000001041F46041C8F80010D8F80010A2685F
:1021E00021F0F0011143C8F80010C00740D1D8F821
:1021F000F80300F00700854207D288F8F853D8F8B2
:10220000F80300F00700A8424CD12068410707D529
:10221000D8F80010E26821F4E0511143C8F800102A
:10222000000708D5D8F80000216920F4604040EA92
:10223000C100C8F8000000F09DF8D8F8001040F286
:102240005E42C1F30311C0F60102515C40F29802F4
:1022500020FA01F140F20800C2F200000068C2F268
:1022600000021160FFF7C2FE0020BDE8F08100BF50
:102270006068811E022907D258F8081C89015CBFDA
:102280000120BDE8F08111E0012807D158F8081CB1
:1022900089035CBF0120BDE8F08107E058F8081C05
:1022A000890703D40120BDE8F08100BFD8F80010F1
:1022B00021F003010843C8F80000FFF767FE064657
:1022C00041F28837D8F80000616800F00C00B0EBEC
:1022D000810F8CD0FFF75AFE801BB842F2D9032041
:1022E000BDE8F0810F22026043F60802C4F2020248
:1022F000136803F003034360136803F0F003836083
:10230000136803F4E053C360D2F800C04FF4E05305
:1023100003EADC030361D2F8F80300F00700086069
:102320007047000040F2980043F60801C2F2000036
:10233000C4F202010068096840F26E42C1F38221D2
:10234000C0F60102515CC8407047000040F298009E
:1023500043F60801C2F20000C4F2020100680968F5
:1023600040F26E42C1F34231C0F60102515CC840F6
:102370007047000010B543F60404C4F2020461681B
:10238000C1F3810142F20040C0F2F400DFE801F045
:1023900002040A0210BD00BF41F20020C0F27A0020
:1023A00010BD00BF216801F03F0221682368490287
:1023B000C3F3881106D4A1FB00010023FDF700FF41
:1023C00007E000BF41F20020C0F27A004843B0FBB2
:1023D000F2F021680222C1F3014102EB4101B0FB9E
:1023E000F1F010BD002804BF012070472DE9F04135
:1023F00082B00446007843F60006C007C4F2020625
:102400000CD0B06800F00C00042840F081803068E7
:10241000800303D56068002800F068812078800779
:102420001BD5B06810F00C0F09D0B06800F00C009C
:10243000082840F087807068400200F1838030688F
:10244000800703D5E068012840F050813068216999
:1024500020F0F80040EAC10030602078000713D473
:10246000207840072AD4A569002D00F03A81B06891
:1024700000F00C00082840F0A580012D40F00E81EE
:10248000012002B0BDE8F0816069002800F0828080
:102490000020C4F247200121C0F8801EFFF776FD1E
:1024A000054600BF706F8007DAD4FFF76FFD401B51
:1024B0000228F7D9032002B0BDE8F081306C5FEA52
:1024C000C0080AD400200190306C40F08050306485
:1024D000306C00F080500190019847F20007C4F280
:1024E00000073868C00547D4386840F48070386009
:1024F000FFF74CFD054600BF3868C0053CD4FFF728
:1025000045FD401B0228F7D9032002B0BDE8F08149
:10251000B06800F00C00082803D1706840023FF555
:1025200076AF61683068B1F5803F07D0B1F5A02F74
:1025300040F09A8040F480203060306840F4803071
:1025400030609AE0E068002840F20000C4F24720C2
:102550005CD001210160FFF719FD05463068800756
:102560003FF574AFFFF712FD401B0228F6D9032098
:1025700002B0BDE8F08100BFA168306F012905D02D
:10258000052955D140F004003067306F40F001005C
:10259000306756E00020C4F247200021C0F8801EBA
:1025A000FFF7F4FC054600BF706F80077FF558AF5A
:1025B000FFF7ECFC401B0228F6D9032002B0BDE86F
:1025C000F08100BF0027C4F2472700203866FFF7DC
:1025D000DDFC022D05460DD13068800140F18A8076
:1025E000FFF7D4FC401B02284FF00300F4D902B0DF
:1025F000BDE8F0813068800173D5FFF7C7FC401B50
:1026000002284FF00300F5D9F1E700BF0021016077
:10261000FFF7BCFC054600BF306880077FF51DAFA3
:10262000FFF7B4FC401B02284FF00300F4D9DEE7AB
:1026300020F001003067306F002920F0040030677F
:102640007AD0FFF7A3FC054641F28837306F800748
:1026500000F18480FFF79AFC401BB842F6D90320B2
:1026600002B0BDE8F08100BF20F4803030603068F7
:10267000002920F4802030607AD0FFF787FC0546DF
:10268000306880033FF5CAAEFFF780FC401B64282A
:10269000F6D9032002B0BDE8F08100BF7068E1699F
:1026A00000F480028A4221D1216A00F03F028A426E
:1026B0001CD147F6C071626A0140B1EB821F15D18F
:1026C000A16A4FF6FF73C903994300F44032A1F5A4
:1026D00080318A420AD1E16A00F07060B0EB016F8C
:1026E00004D1002002B0BDE8F08100BF012002B09B
:1026F000BDE8F08104F11C052FCD084340EA8210AB
:10270000D9034FF6FF729143A1F5803140EA05608D
:102710000843706001203866FFF738FC044600BFAC
:1027200030688001DDD4FFF731FC001B02284FF038
:102730000300F5D95BE700BFFFF728FC054641F22F
:10274000883700BF306F800708D5FFF71FFC401B9C
:10275000B8424FF00300F5D949E700BFB8F1000FC8
:102760003FF581AE306C20F0805030647BE600BFD6
:10277000FFF70CFC054600BF306880037FF54EAEC6
:10278000FFF704FC401B64284FF00300F4D92EE748
:10279000002804BF0120704770B5044690F8490036
:1027A00015460E4628B9002084F84800204600F05F
:1027B0001DF8206804F10801FEF70CFB2068A268F0
:1027C0003146FEF74BFBD4E90102236B2946FEF7A5
:1027D000D9FA2068A16850F8212042F0010240F89F
:1027E0002120012084F84900002070BDB0B586B0DA
:1027F000002043F630010190C4F202018A6840F6DD
:10280000004442F001028A608A68C4F2020402F0C5
:1028100001020192019A01900A6801AD42F008029A
:102820000A600A6802F008020192019A01900868A1
:1028300040F0100008600868012100F010000190CD
:1028400001984CF20370019002200290CDE9031030
:102850000C20059020462946FFF7C2FA4FF68070FB
:10286000019004F580602946FFF7BAFA06B0B0BDC2
:10287000704700007047000090F83C20012A4FF09C
:10288000020254D010B580F83D200268D2F804E06E
:10289000D2F808C00C682EF07003234341F2FF7495
:1028A000C4F20004A24253600EDC40F2FF73C4F293
:1028B00000039A4216DCB2F1804F2BD040F2004365
:1028C000C4F2000324E000BF40F2FF33C4F201036E
:1028D0009A4213DC41F60003C4F200039A4219D075
:1028E000002313E040F60003C4F200039A4211D023
:1028F00040F60043C4F200030AE000BF44F20003C4
:10290000C4F201039A4205D040F20043C4F201032D
:102910009A4204D149682CF0800319439160012147
:10292000002280F83D1080F83C20BDE810401046A1
:1029300070470000002804BF0120704710B504460E
:1029400090F83D0028B9002084F83C00204600F0B3
:102950001FF8022084F83D002068211D02F058F97C
:10296000012084F8460084F83E0084F83F0084F893
:10297000400084F8410084F8420084F8430084F861
:10298000440084F8450084F83D00002010BD00009C
:1029900080B586B0006841F2FF71C4F20001884240
:1029A0004FF000010591CDE90311CDE9011145DC9E
:1029B000B0F1804F6ED040F20041C4F20001884275
:1029C00000F0A28040F60001C4F20001884240F00D
:1029D000B680002043F640010090C4F202010A686C
:1029E00042F004020A600A6802F004020092009AAF
:1029F000009051F8102C42F0100241F8102C51F8C0
:102A0000101C01F010010091009901210191022197
:102A1000CDE90210CDE904010020C4F2020000F566
:102A2000805001A9FFF7DCF91E2005210022FFF7E5
:102A30006BFB1E20FFF756FB06B080BD41F6000180
:102A4000C4F20001884251D040F20041C4F20101B9
:102A5000884265D00021C4F2010188426FD1002074
:102A6000009043F64000C4F202004168002241F0A9
:102A7000010141604068052100F0010000900098CC
:102A80001920FFF741FB192006B0BDE88040FFF791
:102A900029BB00BF002043F640010090C4F20201B0
:102AA0000A6842F001020A600A6802F0010200921C
:102AB000009A009051F8102C42F0010241F8102CBD
:102AC00051F8101C01F001010091009920210191A1
:102AD0000221CDE902100490012005900020C4F2EB
:102AE000020001A9FFF77CF906B080BD002000902C
:102AF00043F64000C4F20200016841F04001016069
:102B0000006800F0400018E00020009043F640000C
:102B1000C4F20200016841F00201016000680AE0AD
:102B20000020009043F64000C4F20200416841F0EA
:102B300002014160406800F002000090009806B079
:102B400080BD000090F83D1001291CBF0120704796
:102B5000022180F83D10006841F2FF71C4F20001CB
:102B600088420DDC40F2FF71C4F20001884215DC9E
:102B7000B0F1804F2AD040F20041C4F2000123E0BE
:102B800040F2FF31C4F20101884213DC41F600013A
:102B9000C4F20001884219D0002113E040F6000180
:102BA000C4F20001884211D040F60041C4F2000195
:102BB0000AE000BF44F20001C4F20101884205D0DE
:102BC00040F20041C4F20101884206D1816801F05F
:102BD0000701062904BF00207047016841F0010188
:102BE000016000207047000090F83D1001291CBFD3
:102BF00001207047022180F83D10006841F2FF7209
:102C0000C168C4F20002904241F00101C1600DDCD4
:102C100040F2FF71C4F20001884215DCB0F1804F30
:102C20002AD040F20041C4F2000123E040F2FF311B
:102C3000C4F20101884213DC41F60001C4F2000134
:102C4000884219D0002113E040F60001C4F20001CF
:102C5000884211D040F60041C4F200010AE000BFF2
:102C600044F20001C4F20101884205D040F2004163
:102C7000C4F20101884206D1816801F007010629EA
:102C800004BF00207047016841F00101016000208D
:102C90007047000090F83C20012A4FF002026CD0EF
:102CA00080B580F83D20D0F800C04FF67772DCF890
:102CB000083023EA0202CCF808200B684F2B29DCED
:102CC0001F2B45DD202B46D0302B44D0402B40F02D
:102CD000AF80D1F804E0C968DCF82030DCF82020AF
:102CE00022F00102CCF82020DCF8182022F0F002BB
:102CF00042EA011123F00A0242EA0E02CCF818104F
:102D0000CCF82020DCF8081041F0470121F0300118
:102D100028E000BF6F2B33DDB3F5005F74D0B3F54F
:102D2000805F21D0702B40F08380D1E901E3C96836
:102D3000DCF8082043EA0E0322F47F4243EA012133
:102D40001143CCF80810DCF8081041F0770109E0D5
:102D50000BB1102B6CD1DCF8081021F07001194375
:102D600041F00701CCF808100022012180F83D1045
:102D7000002180F83C10BDE880401046704700BF3D
:102D8000502B21D0602B53D1D1F804E0C968DCF876
:102D90002030DCF8202022F01002CCF82020DCF8D3
:102DA000182022F4704242EA013123F0A00242EAE4
:102DB0000E12CCF81810CCF82020DCF8081041F0E6
:102DC000670121F01001CDE7D1F804E0C968DCF813
:102DD0002030DCF8202022F00102CCF82020DCF8A2
:102DE000182022F0F00242EA011123F00A0242EA1E
:102DF0000E02CCF81810CCF82020DCF8081041F0B6
:102E0000570121F02001ADE7D1E901E3C968DCF801
:102E1000082043EA0E0322F47F4243EA01211143D2
:102E2000CCF80810DCF8081041F480419AE700BFA4
:102E300001229AE77047000070B504460068C56833
:102E40000669B10716D515F0020113D06FF0020123
:102E50000161012121778069800703D02046FFF7B7
:102E6000E9FF05E0204600F08FF8204600F0CEF99B
:102E700000202077700719D515F0040016D02068BF
:102E80006FF00401016102212177806910F4407F15
:102E900004D02046FFF7CEFF06E000BF204600F03A
:102EA00073F8204600F0B2F900202077300717D5DC
:102EB00015F0080014D020686FF0080101610421AA
:102EC0002177C069800703D02046FFF7B3FF05E0F4
:102ED000204600F059F8204600F098F900202077AD
:102EE000F00619D515F0100016D020686FF010010B
:102EF000016108212177C06910F4407F04D0204689
:102F0000FFF798FF06E000BF204600F03DF820469E
:102F100000F07CF900202077F00718BF15F00100C1
:102F200002D1300609D412E020686FF0010101617E
:102F3000204600F0F5F9300609D515F0800006D0DE
:102F400020686FF0800101612046FFF791FC700658
:102F500009D515F0400006D020686FF040010161EE
:102F6000204600F0E7F9B00658BF70BD15F020000C
:102F700008D021686FF0200220460A61BDE8704049
:102F8000FFF778BC70BD00007047000090F83C303F
:102F9000012B04BF022070474FEAB202032A00F25D
:102FA000FF802DE9F043DFE802F003B13F7F00BF6F
:102FB000036840F200461C6A1A6A24F0020422F0F8
:102FC00001021A621A46D3F804C052F818EF8F684B
:102FD00043F48065C4F20106B54244EA070405D112
:102FE000CF6824F00C0427F004073C430F68B54277
:102FF00006D1D1E905582CF440762E4346EA080C58
:103000002EF073063743C3F804C09F614F68096907
:103010005F631C629F6947F008079F619F6927F003
:1030200004079F61B1E000BF036840F200481C6ADA
:103030001A6A24F4007422F480721A621A46D3F8D1
:1030400004C052F81CEF8F6843F48065C4F2010895
:10305000454544EA072408D1CF6840F2FF463F02C5
:1030600024F4406427EA06063443D1F8009045452D
:1030700006D1D1E905562CF440572E4347EA061CE9
:103080002EF0730747EA0907C3F804C0DF614F68F1
:103090000969DF631C62DF6947F00807DF61DF69E8
:1030A00027F00407DF6170E0036840F20045D3F8C1
:1030B00020C01A6A43F4806722F480521A621A46CA
:1030C0005C6852F81C8FD1F800E08E68C4F20105EC
:1030D000AF4204D14D6924F4804444EA85142CF4B1
:1030E000005747EA063728F4E64646EA0E265C60B3
:1030F000DE614E6809691E641F62DF6947F400677C
:10310000DF61DF6927F48067DF613DE0036840F23B
:1031100000481C6A1A6A24F0200422F010021A6285
:103120001A46D3F804C052F818EF8F6843F480654C
:10313000C4F20108454544EA071407D1CF686FF08F
:10314000400624F0C00406EA07163443D1F8009084
:10315000454506D1D1E905562CF440672E4347EA90
:10316000860C2EF4E64747EA0927C3F804C09F619E
:103170004F6809699F631C629F6947F400679F61FC
:103180009F6927F480679F610902136819431160E2
:103190000021BDE8F043002280F83C20084670473B
:1031A0000121002280F83C2008467047002804BF17
:1031B0000120704710B5044690F83D0028B9002062
:1031C00084F83C00204600F01FF8022084F83D00FF
:1031D0002068211D01F01CFD012084F8460084F8C0
:1031E0003E0084F83F0084F8400084F8410084F8F1
:1031F000420084F8430084F8440084F8450084F8D1
:103200003D00002010BD0000704700007047000026
:10321000C1B1042908D0082914BF41224022825C90
:10322000012A05D016E000BF3F22825C012A11D19D
:103230000222082910D0042914BF80F8412080F808
:103240003F200BE090F83E20012A03D1022280F8B3
:103250003E2003E00120704780F84020006801F024
:103260001F010122036A02FA01F123EA010202624C
:10327000026A114341F2FF72C4F2000290420162FD
:103280000CDC40F2FF71C4F20001884214DCB0F1A2
:10329000804F37D040F2004116E000BF40F2FF31CE
:1032A000C4F20101884215DC41F60001C4F20001BC
:1032B000884227D0002115E040F60001C4F2000149
:1032C00088421FD040F60041C4F20001884219D064
:1032D0001FE000BF44F20001C4F20101884211D096
:1032E00040F20041C4F20101884212D1416C40F227
:1032F000004340F48062C4F2010341F400419A4269
:10330000416406D1816801F00701062904BF00204D
:103310007047016841F00101016000207047000022
:10332000006841F20001C4F20001884218BF7047F2
:10333000FEF732BE70470000002804BF012070472E
:1033400010B5044690F8410028B9002084F84000E8
:10335000204600F021F8242084F841002068C1684C
:1033600021F40051C160204601F0F0FC20680169A1
:1033700021F490410161416921F02A014161C16854
:1033800041F40051C16000202021606484F84110A4
:1033900084F84210606310BD80B586B041F2000130
:1033A0000068C4F20101002288420592CDE903229F
:1033B0000292019202D006B080BD00BF43F63000F9
:1033C0000092C4F20200436943F010034361436971
:1033D00003F010030093009B0092036843F0010385
:1033E0000360006800F00100009000984FF4C06096
:1033F00001900220CDE902020320049007200590ED
:1034000001F5704001A9FEF7EBFC06B080BD00009D
:103410002DE9F04381B0044690F84100202809D1FD
:1034200000294FF0010018BF002A07D101B0BDE804
:10343000F08300BF022001B0BDE8F083002060648B
:1034400021201D460E4684F841001746FEF79EFDDA
:10345000A784E784A1688146B1F5805F02D1206925
:1034600000285DD037460020E28C2168002A5DD01C
:103470006A1C24D0002D4AD0804600BF0868000690
:1034800008D4FEF783FDA0EB0900A8427AD8216892
:10349000C868F3E717B117F8010B04E038F8020B1E
:1034A00000276FF35F204860E08C0138E084E08CF7
:1034B0000028E3D13AE000BF0A68120609D40A687E
:1034C000120606D40A6812065CBF0A685FEA026246
:1034D000F2D51FB117F8012B05E000BF30F8022B21
:1034E00000276FF35F224A60E28C013AE284E28CAB
:1034F000002AE4D11AE000BF30F8022B00276FF356
:103500005F224A60E28C013AE284E28C72B10A687E
:10351000120635D5002FEFD017F8012BF1E700BFC9
:1035200000273046E28C2168002AA1D108684006B5
:103530001ED42DB3681C14D1086840062AD408682C
:10354000400627D40868400624D4086840064FF097
:103550000000F1D50DE000BF2068C168006840069A
:1035600018D4FEF713FDA0EB0900A842F4D909E036
:103570000020202184F8411001B0BDE8F08300BF95
:10358000FEF704FD0320202184F8411001B0BDE8BE
:10359000F08300BF0020202184F8411001B0BDE875
:1035A000F0830000FEE7000010B540F20C04C2F208
:1035B0000004606CB4F848100122FEF7E1FC606C76
:1035C000B4F848100022BDE81040FEF7D9BC000056
:1035D0002DE9F04387B0002043F630010690CDE995
:1035E0000400CDE902000190C4F202010A6840F62D
:1035F000000442F001020A600A68C4F2020402F008
:1036000001020192019A01900A6802AD42F004029F
:103610000A600A6802F004020192019A01900A68A5
:1036200042F008020A600A6802F008020192019A58
:103630000190086840F0400008600868294600F0E2
:103640004000019001980120CDE90300032005907E
:103650004FF4806002902046FEF7C2FB04F58066BE
:103660008027304629460297FEF7BAFB20462946B6
:103670000297FEF7B5FB4FF0400920462946CDF8EA
:103680000890FEF7ADFB029704F5805738462946AF
:10369000FEF7A6FB4FF40070029020462946FEF785
:1036A0009FFB4FF48078A4F500602946CDF8088090
:1036B000FEF796FB0420029030462946FEF790FB69
:1036C00030462946CDF80890FEF78AFB4FF40040BB
:1036D000029038462946FEF783FB4FF400600290C3
:1036E00020462946FEF77CFB4FF48050029020468E
:1036F0002946FEF775FB20462946CDF80880FEF7DF
:103700006FFB40F20C04C2F20004606A218D0022BB
:10371000FEF736FCE06BB4F840100122FEF730FCF7
:10372000606B218F0022FEF72BFC606CB4F8481010
:103730000022FEF725FCE06CB4F850100022FEF7E2
:103740001FFC606DB4F858100022FEF719FCE06D04
:10375000B4F860100022FEF713FC606EB4F8681035
:103760000022FEF70DFC606821890022FEF708FCAC
:10377000E068218A0022FEF703FC6069218B0022A9
:10378000FEF7FEFBE069218C0022FEF7F9FB07B093
:10379000BDE8F083000000002DE9F04F81B0FFF795
:1037A00017FF40F20C04C2F20004E06A218E0022EE
:1037B000FEF7E6FBE06A218E0122FEF7E1FBE06AFC
:1037C000218E0022FEF7DCFBBDA201200321012394
:1037D00001F032FBBBA203200321012301F02CFBEB
:1037E00040F24426C2F20006B089C1082C2988BFE5
:1037F0000020FCF7DDFE9FEDAE0B57EC105B2A4678
:103800003B46FCF7D9FDFCF7E0FE40BA04F10308A3
:10381000ADF80000002001214246002301F00CFB1E
:103820006A4605200221012301F006FB3088C10809
:103830002C2988BF0020FCF7BBFE2A463B46FCF73C
:10384000BBFDFCF7C2FE40BAADF80000002001212C
:103850002246002301F0F0FA6A46052002210123E6
:1038600001F0EAFAB088C1082C2988BF0020FCF7D3
:103870009FFE2A463B46FCF79FFDFCF7A6FE40BA9A
:1038800004F10109ADF80000002001214A4600239F
:1038900001F0D2FA6A4605200221012301F0CCFA98
:1038A0003089C1082C2988BF0020FCF781FE2A46F8
:1038B0003B46FCF781FDFCF788FE40BA04F1020BA1
:1038C000ADF80000002001215A46002301F0B4FAAF
:1038D0006A4605200221012301F0AEFAE06E49F6A6
:1038E000FF27CEF23227C11907F1010A514538BF2F
:1038F0004FF47A70FCF75CFE9FED6F0B55EC106B8C
:1039000032462B46FCF758FDFCF77EFE00BA0090CD
:10391000002001212246002301F08EFA6A4604208D
:103920000421012301F088FA206FC119514538BFE5
:103930004FF47A70FCF73CFE32462B46FCF73CFD18
:10394000FCF762FE00BA0090002001214A460023E5
:1039500001F072FA6A4604200421012301F06CFA96
:10396000606FC119514538BF4FF47A70FCF720FEE3
:1039700032462B46FCF720FDFCF746FE00BA0090CD
:10398000002001215A46002301F056FA6A4604201D
:103990000421012301F050FAA06FC119514538BF2D
:1039A0004FF47A70FCF704FE32462B46FCF704FD18
:1039B000FCF72AFE00BA00900020012142460023B5
:1039C00001F03AFA6A4604200421012301F034FA96
:1039D00040F28805C2F20005A8890021B1EB902FC2
:1039E00018BF722010268DF8020046EA10208DF8CC
:1039F00001008DF80010002001214246002300271D
:103A000001F01AFA6A4606200321012301F014FA94
:103A100028880121B7EB902F18BF72208DF8020083
:103A200046EA10208DF801000020224600238DF880
:103A3000007001F001FA6A4606200321012301F01B
:103A4000FBF9A8880021B1EB902F18BF72208DF8E8
:103A5000020046EA10208DF801008DF800100020C9
:103A600001214A460023002401F0E6F96A460620B7
:103A70000321012301F0E0F928890121B4EB902F03
:103A800018BF72208DF8020046EA10208DF8010060
:103A900000205A4600238DF8004001F0CDF96A4617
:103AA00006200321012301F0C7F901B0BDE8F08F22
:103AB000000000000080963F95D626E80B2E31408E
:103AC000AB00000000030000B0B584B044F2582001
:103AD000C2F2000042F200014FF080534FF0006547
:103AE0000024C4F20101C0E90A53012503944FF4F4
:103AF0008032047680F82040C56180F8305080E83C
:103B00001600C0E903444561FDF7D2FA002818BF4A
:103B1000FDF734F944F25820C2F200006946CDE9BD
:103B200000550294FDF71CFA002818BFFDF726F98E
:103B300004B0B0BDB0B584B044F2A02042F2001190
:103B400001230024C2F20000C4F20101C0F6007398
:103B5000012503944FF48032047680F82040C0E9B8
:103B60000A34C56180F8304080E81600C0E903449B
:103B70004561FDF79DFA002818BFFDF7FFF80C20FE
:103B8000CDE9000544F2A020C2F20000694602948B
:103B9000FDF7E6F9002818BFFDF7F0F804B0B0BD56
:103BA000B0B584B044F2E820C2F2000042F2002135
:103BB0004FF080534FF060650024C4F20101C0E96A
:103BC0000A53012503944FF48032047680F8204094
:103BD000C56180F8305080E81600C0E903444561B3
:103BE000FDF766FA002818BFFDF7C8F80220CDE9F6
:103BF000000544F2E820C2F2000069460294FDF795
:103C0000AFF9002818BFFDF7B9F804B0B0BD000047
:103C100080B582B0002001903C20009044F230300A
:103C200047F20041C2F20000C4F200010160FDF75A
:103C30003BFE002818BFFDF7A1F844F23030C2F275
:103C4000000069460022FDF7C9FD002818BFFDF7F6
:103C500095F802B080BD000080B582B000200190D0
:103C600043F63000C4F202000168002241F48001F2
:103C700001600068052100F480000190019838205F
:103C8000FEF742FA3820FEF72DFA392005210022EE
:103C9000FEF73AFA392002B0BDE88040FEF722BABA
:103CA00010B544F6852044F22022C0F60000C0F68C
:103CB000010200210AF0A4FA40F2B804C2F20004A2
:103CC000206044F68D2044F24422C0F60000C0F685
:103CD000010200210AF094FA606010BD70B586B050
:103CE000002643F630000596CDE90366CDE901666E
:103CF0000096C4F20200016841F6000441F0800120
:103D000001600168C4F2020401F080010091009991
:103D100000960168002241F0040101600168142549
:103D200001F00401009100990096016841F0010141
:103D30000160016801F0010100910099009601689D
:103D400041F002010160016801F002010091009957
:103D50000096016841F040010160016801F04001F6
:103D6000009100990096016841F01001016000681F
:103D7000142100F01000009000982046FEF700F992
:103D800001200195CDE90206032001AD04902046F3
:103D90002946FEF725F82820CDE90106A4F5A05014
:103DA00029460396FEF71CF806B070BDB0B592B078
:103DB00041F6000544F24C40C4F200050021C2F275
:103DC00000004F2213230B91CDE909110791CDE992
:103DD0000511CDE90311CDE90111C0E90052C0E997
:103DE000021301618161FEF7A5FD002818BFFCF7F1
:103DF000C5FF4FF48050089044F24C40C2F20000DE
:103E000008A9FEF747FF002818BFFCF7B7FF44F2E8
:103E10004C40C2F20000FFF7C9F9002818BFFCF7B8
:103E2000ADFF602001900920029044F24C40002434
:103E3000C2F2000001A9002203940594FFF7A6F83E
:103E4000002818BFFCF79AFF029444F24C44C2F2D7
:103E5000000401A920460422FFF798F8002818BFA3
:103E6000FCF78CFF21680020A9421190CDE90F00DA
:103E70000E900D9002D012B0B0BD00BF43F63001DD
:103E80000C90C4F202010A6842F002020A6009685A
:103E900001F002010C910C994FF440410D91022167
:103EA000CDE90E1010900920119005F5F6300DA9FE
:103EB000FDF796FF12B0B0BD80B586B044F2044065
:103EC00000220021C2F20000C4F2010243F67F6327
:103ED00042F20F7C4FF0800E0591CDE90311CDE940
:103EE0000011C0E90023C0E9021CC0E90411C0F8B8
:103EF00018E0FEF71FFD002818BFFCF73FFF4FF446
:103F00008050029044F20440C2F2000002A9FEF781
:103F1000C1FE002818BFFCF731FF44F20440C2F292
:103F200000006946FEF7A8FC002818BFFCF726FF32
:103F300006B080BD10B586B044F294400024C2F2B1
:103F400000004FF080414FF0FF32CDE90044C0E95E
:103F50000014C0E9024204618461FEF7EBFC002812
:103F600018BFFCF70BFF4FF40050CDE9020444F2F8
:103F70009440C2F2000002A9CDE90444FEF78AFE93
:103F8000002818BFFCF7FAFE0020CDE9000044F23B
:103F90009440C2F200006946FEF76EFC002818BF8C
:103FA000FCF7ECFE06B010BD80B586B02020009076
:103FB00044F2DC4040F200420021C2F20000C4F2B0
:103FC00000024F230591CDE903110191C0E90021C1
:103FD000C0E90213016180218161FEF7ABFC00287A
:103FE00018BFFCF7CBFE4FF48050029044F2DC4047
:103FF000C2F2000002A9FEF74DFE002818BFFCF730
:10400000BDFE44F2DC40C2F200006946FEF734FC1B
:10401000002818BFFCF7B2FE06B080BD10B586B010
:1040200044F2245040F600010024C2F20000C4F221
:1040300000014FF6FF72CDE90044C0E90014C0E969
:10404000024204618461FEF775FC002818BFFCF78A
:1040500095FE4FF40050CDE9020444F22450C2F220
:10406000000002A9CDE90444FEF714FE002818BFA1
:10407000FCF784FE0020CDE9000044F22450C2F297
:1040800000006946FEF7F8FB002818BFFCF776FE33
:1040900006B010BD80B586B02020009044F2B45028
:1040A00040F200420021C2F20000C4F201029F234C
:1040B0004FF0800C0591CDE903110191C0E9002179
:1040C000C0E90213C0E90411C0F818C0FEF732FCC1
:1040D000002818BFFCF752FE4FF48050029044F2C3
:1040E000B450C2F2000002A9FEF7D4FD002818BFA8
:1040F000FCF744FE44F2B450C2F200006946FEF7F9
:10410000BBFB002818BFFCF739FE06B080BD0000DD
:1041100080B544F2FC5041F20001C2F20000C4F24A
:10412000010100234FF00C0C4FF4E13280E80E0047
:10413000C0E90333C0E905C3C361FFF7FDF80028F8
:1041400008BF80BDBDE88040FCF718BEFEE7000058
:10415000FEE700000000000000000000000000007A
:10416000EFF30980BFF36F8F154B1A681EF0100F25
:1041700008BF20ED108A20E9F04F10602DE90900FA
:104180004FF0500080F31188BFF34F8FBFF36F8F54
:104190000BF0DAF84FF0000080F31188BDE8090059
:1041A00019680868B0E8F04F1EF0100F08BFB0ECB7
:1041B000108A80F30988BFF36F8F704700BF00BF7C
:1041C00040010020F0B581B02DED028B14469FED2B
:1041D000C90A9FEDC91A41F258220D460E3000213E
:1041E000C2F20002002300BF30F80E7C02EE107A0B
:1041F000B8EE422A22EE002A82EE012A30F80C7C28
:1042000003EE107A30F80A7CB8EE433A04EE107AE6
:1042100030F8087CB8EE444A05EE107A30F8067C97
:10422000B8EE455A06EE107A30F8047CB8EE466ACD
:1042300007EE107A30F8027C30F8106B00EE907ABE
:10424000D71887ED002A02EE106AB8EE477AF8EE2A
:10425000600AB8EE422A23EE003A24EE004A25EE28
:10426000005A26EE006A27EE007A60EE800A22EEFF
:10427000002A83EE013A84EE014A85EE015A86EE69
:10428000016A87EE017AC0EE810A82EE012A40338C
:10429000B3F5005F7960F9607961F961796287ED62
:1042A000023A87ED044A87ED065A87ED086A87EDE2
:1042B0000A7AC7ED0C0AF962796387ED0E2AF96371
:1042C00092D141F2582641F28820C2F20006C0F68F
:1042D000010031460022012300F0ECFE43F2582792
:1042E000C2F20007304639464FF4806201F0CCFB41
:1042F00097ED002AB0EE081A9FED800A22EE012AFF
:1043000022EE002A87ED002A9FED7D2A9FED7D3A5F
:10431000A7F118000421B0EE428A00BF90ED0A4ACE
:10432000B1F5007F24EE014A24EE034A4FF000026B
:10433000B4EE484A4FF0000380ED0A4A38BF01222C
:10434000F1EE10FAC8BF0123134018BFB0EE448A43
:1043500004EE101A90ED0B5AB8EE444A18BFB0EEB6
:10436000442A25EE014A24EE034AB4EE484AF1EE0F
:1043700010FA4FF0000380ED0B4AC8BF01231A402A
:1043800001F1010218BFB0EE448A04EE102A90ED4C
:104390000C5AB8EE444A18BFB0EE442A25EE014A42
:1043A00024EE034AB1F5FF7F4FF00002B4EE484A15
:1043B00080ED0C4A38BF0122F1EE10FA4FF00003F5
:1043C000C8BF01231A4001F1020218BFB0EE448AAF
:1043D00004EE102A90ED0D5AB8EE444A18BFB0EE24
:1043E000442A25EE014A24EE034AB1F5FE7F4FF040
:1043F0000002B4EE484A80ED0D4A98BF0122F1EE6A
:1044000010FA4FF00003C8BF01231A4001F1030264
:1044100018BFB0EE448A04EE102A90ED0E5AB8EEA2
:10442000444A18BFB0EE442A25EE014A24EE034A5E
:10443000B1F5FE7F4FF00002B4EE484A80ED0E4A1F
:1044400038BF0122F1EE10FA4FF00003C8BF01237C
:104450001A4001F1040218BFB0EE448A04EE102A9B
:1044600090ED0F5AB8EE444A18BFB0EE442A25EE3C
:10447000014A24EE034AB1F5FD7F4FF00002B4EE8D
:10448000484A80ED0F4A98BF0122F1EE10FA4FF032
:104490000003C8BF01231A4001F1050218BFB0EEA6
:1044A000448A04EE102A01F10601B8EE444A18BF0E
:1044B000B0EE442AB1F5806F00F118007FF42EAF02
:1044C0009FED111A22EE011A21EE000A10EE100AD9
:1044D000FCF7B3F841EC100B18EE100A85ED000B59
:1044E000FCF7ABF841EC100B84ED000BBDEC028B3C
:1044F00001B0F0BD3333534000F07F450000803AF7
:10450000000000000000003B00007A4400000000B2
:104510002DE9F04381B02DED0C8B86B0032800F21D
:104520002E81DFE810F005006F013301410100BF6B
:1045300041F60000C4F2020004210122FDF720FD33
:1045400000254FF4C8700A214FF4487232230095B9
:1045500008F04AFA4FF4FC600FF2F0412026CDE952
:1045600001104FF4C8700A214FF4C8722823009636
:1045700009F024FD45F69830C2F2000002681F27BA
:10458000642032210823CDE9006709F08DFC41F257
:104590005628C2F2000898F80000002800F0EF80CA
:1045A00040F2382444F64460C2F20004C2F2000033
:1045B00004AA2146CDE90455FFF704FE40F228196C
:1045C000C2F20009B9F800004CF6CD414143090D93
:1045D00001EB8101A0EB810149F660679DED040BC1
:1045E00089B2C2F2000707EBC10181ED000B94ED27
:1045F000000B9FEDF71B0130A9F8000053EC112BC5
:1046000051EC100BFBF731FE41EC100B4FF47844EA
:104610004FF49670322105220323CDE9006409F09E
:10462000B3FA97EC040B97ED048B97ED069B51ECD6
:10463000100B53EC112BFBF718FE53EC182BFBF768
:1046400014FE53EC192BFBF710FE97ED080B53ECFF
:10465000102BFBF70AFE97ED0A0B53EC102BFBF720
:1046600004FE97ED0C0B53EC102BFBF7FEFD97EDC2
:104670000E0B53EC102BFBF7F8FD97ED100B53ECE2
:10468000102BFBF7F2FD97ED120B53EC102BFBF701
:10469000ECFD97ED140B53EC102BFBF7E6FD97EDBB
:1046A000160B53EC102BFBF7E0FD97ED180B53ECBA
:1046B000102BFBF7DAFD97ED1A0B53EC102BFBF7E1
:1046C000D4FD97ED1C0B53EC102BFBF7CEFD97EDB3
:1046D0001E0B53EC102BFBF7C8FD97ED200B53EC92
:1046E000102BFBF7C2FD97ED220B53EC102BFBF7C1
:1046F000BCFD97ED240B53EC102BFBF7B6FD97EDAB
:10470000260B53EC102BFBF7B0FD9FEDB70B53ECD2
:10471000102BFBF7C3FE41EC100B89ED020B9FED54
:10472000B40B53EC102BFBF747FE9FEDB30B53EC90
:10473000102BFBF79AFD41EC100BC8A08DED040B7C
:1047400048F21F44CDE900604FF416703221642214
:104750003223029409F032FC9DED040B40F28A20D2
:10476000322101220323CDE9006409F00DFA43F25E
:104770005820C2F20000FCF783FA88F8005006B017
:10478000BDEC0C8B01B0BDE8F08300BF00274FF4F7
:10479000C8700A214FF448723223009708F024F9B8
:1047A0001F279AA00DE000BF00274FF4C8700A2110
:1047B0004FF448723223009708F016F94FF6FF774E
:1047C0008FA02021CDE900104FF4C8700A214FF4CA
:1047D000C8722823029709F0F1FB40F2C000C2F230
:1047E0000000076850205A214FF443724FF4D273EF
:1047F000009708F0F9F806B0BDEC0C8B01B0BDE8ED
:10480000F08300BF41F60000C4F202000421002240
:104810004FF6FF784FF00009FDF7B2FB4FF4C87078
:104820000A214FF448723223CDF8009008F0DCF8EA
:104830004FF6E07079A12024CDE901104FF4C87043
:104840000A214FF4C8722823009409F0B7FB9FEDAA
:10485000640B9FED769A9FED76CA9FED76AA9FED49
:104860005E8B9FED75BA44F2A02756EC105BC2F246
:10487000000704E0B4EE4B9AF1EE10FA3ADC39EEA0
:104880000A9ABCEEC90A10EE101A0020FBF7E4FFEA
:104890006420FDF791FAB0EE480A38460B216422F5
:1048A000F0EE680AFCF7F8FA51EC100BFBF7D8FEB3
:1048B0000DEE100AFBF7C1FE41EC100B6420322113
:1048C00001220323CDE9004809F05EF9B4EE4DCA98
:1048D000F1EE10FACEDA19EE100AFBF7AEFE2A4618
:1048E0003346FBF7C2FCFBF78FFE8146B0EE4DCAA4
:1048F000C0E700BFB7EE080AB4EE40CA0024F1EEEC
:1049000010FA4FF000002BDD44F2E040C0F2A300AB
:1049100009EB000100200026FBF79EFF40F6B830AF
:10492000FDF74AFA20254FF4967032214A460823B3
:10493000CDE9005809F0B8FA40F65420C2F2000060
:10494000017861B145F69831C2F200010A6806703B
:1049500064200A210C23CDE9005809F0A5FA484645
:1049600000F5C03000F5D4610120FBF775FF64202D
:10497000FDF722FA4FF4C8700A214FF4487232232F
:10498000009408F031F82DA020211F27CDE9001058
:104990004FF4C8700A214FF4C8722823029709F017
:1049A0000DFB44F24460C2F2000000210022FFF738
:1049B00009FC43F25820C2F2000006B0BDEC0C8B9B
:1049C00001B0BDE8F043FCF75BB900BF00BF00BF1A
:1049D000C1CAA145B6F3CD3F6666666666660A4003
:1049E000000000009C6864C100000000000034402A
:1049F000508D976E128304405A643BDF4F8D97BFF2
:104A00005349474E414C5F4E4F4E45005349474E28
:104A1000414C5F554E4B4E4F574E00005369676EE9
:104A2000616C547970653A464D000000201D9A4B28
:104A3000000000000024F44818421B4C5369676EC4
:104A4000616C547970653A43570000005369676E92
:104A5000616C547970653A414D0000004D413A0057
:104A6000074B19680868B0E8F04F80F30988BFF376
:104A70006F8F4FF0000080F31188704700BF00BFB8
:104A800040010020012009F077FBFBE7012009F03D
:104A900073FBFBE780B54EF21000CEF20000006819
:104AA0000BF062F9012808BF80BDBDE880400AF024
:104AB0008FBD000070B592B006AC20463021FBF7E8
:104AC000C9FB002543F640000595CDE90355CDE926
:104AD00001550095C4F202000168022641F08051A0
:104AE0000160006800F080500090009847F20000DC
:104AF0000095C4F20000016841F480410160006843
:104B0000A02100F4804000900098012006904FF40E
:104B1000803007904FF480000D9004200E9011908B
:104B200020460C96CDE90F16FDF75CFC10B172B66D
:104B3000FEE700BF0F20CDE901064FF4A05004901E
:104B40004FF48050059001A805210395FDF718FB4F
:104B500010B172B6FEE700BF12B070BD4EF68850BD
:104B6000CEF20000016841F470010160704700005E
:104B70002420C4F20000016845F23472C2F200023F
:104B80001160116845F69832C2F20002116040F6D9
:104B90005421C2F2000101220A7000210160D0F804
:104BA000002845F69C33C2F200031A80C0F80018B2
:104BB00045F69E3244F20440C2F20002C2F2000006
:104BC0001180FEF739B9000045F69E31C2F20001AE
:104BD0000888421C44F22450C2F200000A80FEF70A
:104BE0002BB9000044F23030C2F20000007940B12D
:104BF00080B544F23030C2F20000FCF721FEBDE87F
:104C0000804044F26C50C2F20000FEF715B900007B
:104C1000B0B540F6FF3E0568C4F2000E40F2004C0D
:104C20007045C4F2010C25DCB0F1804F2FD040F26A
:104C30000043C4F20003984229D040F60003C4F2B6
:104C40000003984223D041F6FF73C4F20003984258
:104C500028DC70453ADCB0F1804F5BD040F2004375
:104C6000C4F20003984255D040F60003C4F200039A
:104C70004EE000BF40F60043C4F20003984206D065
:104C8000604504D00023C4F201039842DBD14B6895
:104C900025F0700243EA020541F6FF73C4F20003F7
:104CA0009842D6DD43F6FF73C4F2010398421FDC3D
:104CB00042F20003C4F2000398422BD00023C4F256
:104CC0000103984226D0604524D028E040F60043F6
:104CD000C4F2000398421DD041F60003C4F2000361
:104CE000984217D041F60043C4F2000310E000BF21
:104CF00044F20003C4F2010398420BD044F60003CF
:104D0000C4F20103984205D044F20043C4F2010307
:104D1000984204D1CB6825F4407243EA02050A6840
:104D20008C684B69C46240F480648262644504BF4D
:104D300009690163026825F0800142F00402194309
:104D40000260012242610160B0BD0000B0B50446BE
:104D5000006804F108030ECB0569194325F440559A
:104D60002A4302616269E3691143C268194349F247
:104D70000C639A431143C1604169A26921F44071F7
:104D800041F20043114340F48062C4F201039A42AD
:104D9000416103D1FDF7DAFA02E000BFFDF7C2FA84
:104DA000E1694FF69C7563681922C0F6FF75B1F58D
:104DB000004FA0FB02011FD15A00DB0FFBF700FAE6
:104DC00048F21F51C5F2EB11A0FB01235A0905F16E
:104DD000805302FB0300322303EBC000A0FB010160
:104DE0004FF4F87000EA111000EB0210C1F3421109
:104DF000084421688860B0BD9A009B0FFBF7E0F97A
:104E000048F21F51C5F2EB11A0FB01235A0902FB26
:104E10000500322303EB0010A0FB0101F02000EAA3
:104E2000511000EB0210C1F343110844216888605F
:104E3000B0BD0000FEE700002DE9F04140F20C0497
:104E4000C2F200041646626B0D46218F07461046DB
:104E500000229846FDF794F8E06BB4F84010002269
:104E6000FDF78EF8606B218F0022FDF789F86068EE
:104E70002189FA09FDF784F8606B218F0122FDF783
:104E80007FF8606B218F0022FDF77AF86068218936
:104E9000C7F38012FDF774F8606B218F0122FDF7D4
:104EA0006FF8606B218F0022FDF76AF86068218936
:104EB000C7F34012FDF764F8606B218F0122FDF704
:104EC0005FF8606B218F0022FDF75AF86068218936
:104ED000C7F30012FDF754F8606B218F0122FDF734
:104EE0004FF8606B218F0022FDF74AF86068218936
:104EF000C7F3C002FDF744F8606B218F0122FDF774
:104F00003FF8606B218F0022FDF73AF86068218935
:104F1000C7F38002FDF734F8606B218F0122FDF7A3
:104F20002FF8606B218F0022FDF72AF86068218935
:104F3000C7F34002FDF724F8606B218F0122FDF7D3
:104F40001FF8606B218F0022FDF71AF86068218935
:104F500007F00102FDF714F8606B218F0122FDF7C5
:104F60000FF8606B218F0022FDF70AF8002D00F08A
:104F70008A80013E606B218F16F8017F0022FCF7CA
:104F8000FFFF60682189FA09FCF7FAFF606B218F47
:104F90000122FCF7F5FF606B218F0022FCF7F0FF88
:104FA00060682189C7F38012FCF7EAFF606B218FEC
:104FB0000122FCF7E5FF606B218F0022FCF7E0FF88
:104FC00060682189C7F34012FCF7DAFF606B218F1C
:104FD0000122FCF7D5FF606B218F0022FCF7D0FF88
:104FE00060682189C7F30012FCF7CAFF606B218F4C
:104FF0000122FCF7C5FF606B218F0022FCF7C0FF88
:1050000060682189C7F3C002FCF7BAFF606B218F8B
:105010000122FCF7B5FF606B218F0022FCF7B0FF87
:1050200060682189C7F38002FCF7AAFF606B218FBB
:105030000122FCF7A5FF606B218F0022FCF7A0FF87
:1050400060682189C7F34002FCF79AFF606B218FEB
:105050000122FCF795FF606B218F0022FCF790FF87
:105060006068218907F00102FCF78AFF606B218FDD
:105070000122FCF785FF606B218F0022FCF780FF87
:10508000013D7FF477AFB8F1010F0BD1606CB4F83C
:1050900048100122FCF774FF606CB4F8481000223D
:1050A000FCF76EFFE06BB4F840100122BDE8F04160
:1050B000FCF766BF2DE9F04F81B02DED108B92B05B
:1050C000B0F800A093460446012A88463FD1BAF1C1
:1050D000000F3CD008F10400BAF1040F0AF00301FC
:1050E0001ED32AF0030200BF90ED000A90ED021AD1
:1050F00090ED042AB1EE400A90ED063A80ED000AE8
:10510000B1EE410A80ED020AB1EE420A80ED040AD6
:10511000B1EE430A80ED060A043A00F12000E3D123
:10512000A9B190ED000A0129B1EE400A80ED000A14
:105130000DD090ED020A0229B1EE400A80ED020A7C
:1051400005D090ED040AB1EE400A80ED040ABAF1F0
:10515000FF0F0FDDBAF5806FC0F2F480BAF5805F03
:1051600000F0F680BAF5006F00F0FE80BAF5806FAF
:1051700014D0F5E0BAF13F0F08DCBAF1100F0DD0F2
:10518000BAF1200F00F0F080EAE000BFBAF1400F62
:1051900000F0DE80BAF1800F40F0E28008EB8A0078
:1051A0004FEA5A0911904FEA890062686FF00F01C7
:1051B00000EB8A00CDE9063BA3464FEADA0C01EB8F
:1051C000890E01EB8A07A0F1080500BF08EB010377
:1051D00008EB070093ED040A90ED042A93ED051AFD
:1051E00090ED053A08EB0E0408EB050670EE026A36
:1051F00090ED064A90ED075A94ED046A94ED057A15
:10520000D4ED060AD4ED071AD6ED022AD6ED033AFC
:10521000D6ED044AD6ED055AC3ED046A71EE036A71
:10522000C3ED056AD3ED066AD3ED077A36EE848ABC
:1052300083ED068A37EE858A30EE420A36EEC42ABE
:1052400036EE224A83ED078A84ED044A37EE234A7C
:1052500084ED054A30EEA44A84ED064A31EEA54AB3
:1052600084ED074A531831EE431A37EEC53A32EE51
:10527000C64A33EEC75A34EEE06A35EEE17AD3ED32
:10528000040AD3ED051A60EE202A61EE213A21EEE0
:10529000201A20EE210A31EE400A80ED050A24EEA4
:1052A000210A25EE211A25EE205A72EEA32A24EEB9
:1052B000204A30EE450AC0ED042A86ED020A34EE9B
:1052C000010A86ED030A93ED060A93ED071A22EE12
:1052D000004A23EE015A23EE003A22EE012A33EE71
:1052E000422A80ED072A26EE012A27EE011A27EE30
:1052F000003A26EE000A34EE054A32EE432A30EE3A
:10530000010ABCF1010C01F110010EF1100E07F1C0
:10531000100705F1100580ED064A86ED042A86ED9A
:10532000050A7FF453AF40464946022300F016FDBC
:10533000DBF804201198494602235C4600F00EFD7C
:105340005CE200BFBAF5807F0ED0BAF5007F07D1CE
:105350006268404651461D46012300F0FFFC2B4683
:10536000002B40F0508215E34FEA5A0C08EB8C07F3
:10537000CDE9063B07EB8C0398ED000A98ED011A86
:1053800093ED002A93ED013A03EB8C0030EE024AD4
:1053900030EE420A31EE032A31EE431A97ED013A1C
:1053A00097ED005A90ED017AD0ED000A30EE036AD5
:1053B00071EE451A74EE452A72EE433A30EE430A16
:1053C00031EE051A34EE054A32EE032A36EE476A0C
:1053D00071EEA01A72EEE02A73EEC73A30EE070AB9
:1053E00031EE601A34EE204A32EE072A88ED004A88
:1053F00088ED012A87ED006AC7ED011AC3ED002A86
:10540000C3ED013A80ED000A039080ED011A6FF0C0
:10541000010000EB9A006168009747082AF001003C
:105420006FF0070900EB5A0008914FEA9A0109EB67
:105430008C0B6FF00306CDF814A009EB800A0494DE
:10544000029106EB0C1209EBCC0106EBCC046FF0D9
:105450000F006FF0170E56465D460193CDE90A0620
:10546000CDF844A00EA880E8844008EB090708EBBB
:10547000020008EB060208EB010E119E08EB050A7C
:1054800097ED044ADEED040A08EB060C9AED040AD7
:1054900034EE205A9CED041A75EE002A72EE812A31
:1054A00097ED057ADEED051A9AED052A9CED053A91
:1054B000C7ED042ADAED052A37EE216ADCED053A5C
:1054C00076EE222A72EEA32AC7ED052A08EB0B0717
:1054D00008EB0403D7ED015AD2ED016AD3ED003A8F
:1054E00075EEA62AD0ED004A34EE604A72EEA30AA9
:1054F00070EEA47A37EE617A97ED008A92ED009A09
:1055000053ED010A50ED011AC7ED017A13ED01AA1E
:1055100078EE097A10ED01BACDE90C4137EE8AAA8E
:1055200008993AEE0BAA87ED00AA01EB090734EEC1
:1055300002AA37EE40BA97ED04CA97ED05DA3AEEC3
:1055400043AA3BEE01BA2AEE0CEA2BEE0DFA2BEE43
:105550000CBA2AEE0DAA75EEE65A3BEE4AAA38EED0
:10556000498A75EEE06A33EEE49A8AED05AA76EE92
:10557000A16A38EE09AA09900A9826EE8DBA2AEE99
:105580000DDA2AEE0CAA66EE8C6A3EEE0FEA3BEECE
:105590004AAA76EE8D6A8AED04EA43ED016A83ED4C
:1055A00000AA0B1835EE405A36EE426AD3ED086A6F
:1055B00093ED09AA35EE415A36EE436A25EE26BA36
:1055C00026EE0ACA26EE266A25EE0A5A36EE455A15
:1055D0008EED055A32EEE35A37EEE06A3BEE0CBA36
:1055E00035EE645A36EE616A8EED04BADDF840E0BD
:1055F00065EE662A66EE263A26EE0A6A25EE0A5A15
:1056000032EEC66A35EE635A82ED005A82ED016AC7
:1056100001EB0E0292ED0C5A92ED0D6A34EE422A25
:1056200037EE000A32EE032A30EE410A22EE051A66
:1056300020EE063A31EE031A20EE050A22EE062A83
:1056400030EE420A8CED041A0DAF31EEE01A8CED0B
:10565000050ADDE90B6486CFDDF844A039EE480A7F
:1056600031EE651A21EE062A20EE063A20EE050AF2
:1056700021EE051A099B32EE400A31EE031A013F72
:1056800009F1080905F10805A2F1080200F110006E
:10569000A6F1080601F108010EF1180EA4F10804A4
:1056A0000AF1080AABF1080B03ED011A83ED000AB9
:1056B0007FF4D4AE08EB090708EB010497ED040A68
:1056C00097ED051A94ED042A94ED053A454430EE21
:1056D000024A30EE420A31EE032A31EE431A95EDCA
:1056E000053A95ED045A08EB0A06D6ED040A30EEA9
:1056F000036A72EE433A30EE430A34EE053A33EE73
:10570000203A96ED057A87ED043A95ED053A74EE68
:10571000452A96ED054A32EE032A089A32EE042A0B
:1057200087ED052A02EB090171EE451A91ED042A75
:1057300091ED053A36EE476A71EEA01A31EE051A80
:1057400026EE024A21EE835A21EE822A26EE033A01
:1057500034EE054A32EE432A85ED044A85ED052AEA
:10576000111891ED082A91ED093A72EEE02A73EED4
:10577000C73A22EE824A23EE835A23EE822A22EE91
:10578000833A34EE054A32EE432A84ED044A84ED2E
:10579000052A02EB0E0090ED0C2A90ED0D3A30EE4A
:1057A000070A31EE601A029D20EE024A21EE035AEA
:1057B00021EE021A20EE030A34EE052A31EE400AE9
:1057C00040462946042386ED042A86ED050A00F0AA
:1057D000C5FA049C009862682946042300F0BEFACA
:1057E000626801982946042300F0B8FA62680398B9
:1057F0002946042300F0B2FADDF814A0DDE9063BE7
:10580000002B00F0C780A089002800F0C380421E52
:105810000123D4F8089003EB5202072802F0030C8E
:1058200002D24FF0000E67E022F0030309F10E07E9
:105830004FEA430E37F80E6C37F80C5C26F003067F
:1058400025F0030558F8060058F8052008EB060473
:1058500008EB050148F8062048F80500486862682A
:1058600060604A6037F80A0C37F8081C20F0030023
:1058700021F0030158F8004058F8015008EB0002ED
:1058800008EB010648F8005048F80140706851687C
:105890005060716037F8060C37F8041C20F00300E4
:1058A00021F0030158F8004058F8015008EB0002BD
:1058B00008EB010648F8005048F80140706851684C
:1058C0005060716037F8020C37F8101B20F00300AD
:1058D00021F0030158F8004058F8015008EB00028D
:1058E00008EB010648F8005048F80140706851681C
:1058F000043B506071609DD1BCF1000F4AD009EBB0
:105900004E0339F81E00598820F0030021F00301EE
:1059100058F8007058F8016008EB000208EB010528
:1059200048F8006048F8017068685168BCF1010FE0
:10593000506069602ED09888D98820F0030021F04B
:10594000030158F8007058F8016008EB000208EBFA
:10595000010548F8006048F8017068685168BCF1BA
:10596000020F5060696015D01889598920F0030032
:1059700021F0030158F8003058F8017008EB0002DC
:1059800008EB010648F8007048F80130706851686B
:1059900050607160BBF1010F6FD1BAF1000F6CD094
:1059A00000EE10AAB8EE400AB7EE001A81EE000A27
:1059B000BAF1040F0AF0030036D32AF0030100BF46
:1059C00098ED001A98ED012A98ED023A20EE011A9E
:1059D00098ED034A88ED001A22EE401A88ED011A6C
:1059E00020EE031A98ED042A88ED021A24EE401ADC
:1059F00088ED031A20EE021A98ED052A88ED041AA4
:105A000022EE401A98ED062A88ED051A20EE021AB9
:105A100098ED072A88ED061A22EE401A88ED071A3B
:105A2000043908F12008CBD138B398ED001A98ED6D
:105A3000012A20EE011A22EE402A012888ED001AE0
:105A400088ED012A19D098ED021A98ED032A20EE6C
:105A5000011A22EE402A022888ED021A88ED032A54
:105A60000BD098ED041A98ED052A20EE011A22EECB
:105A7000400A88ED041A88ED050A12B0BDEC108BBF
:105A800001B0BDE8F08F0000002A08BF7047A0F108
:105A90000803081F93ED020A93ED031A20EE000A93
:105AA00021EE011A30EE010A0833B1EEC00A80ED92
:105AB000010A0430013AEDD17047000070B590ED55
:105AC000000A4C1E0ED08E1E032E04F0030E11D2BF
:105AD0004FF0000CBEF1000F46D182ED000AC3F872
